:100000000C9434000C943E000C943E000C943E0082
:100010000C943E000C943E000C943E000C943E0068
:100020000C943E000C943E000C943E000C943E0058
:100030000C943E000C943E000C943E000C943E0048
:100040000C943E000C943E000C943E000C943E0038
:100050000C943E000C943E000C943E000C943E0028
:100060000C943E000C943E0011241FBECFEFD8E04C
:10007000DEBFCDBF0E9453000C9468000C940000BA
:100080001092C5008DE08093C40088E08093C10089
:1000900086E08093C20008959091C00095FFFCCF48
:1000A0008093C60008950E94400080E90E944C00A1
:1000B0008CE30E944C008FE70E944C002FEF8FE3EF
:1000C00092E0215080409040E1F700C00000EDCF69
:0400D000F894FFCFD2
:00000001FF
