:100000000C9434000C9451000C9451000C94510049
:100010000C9451000C9451000C9451000C9451001C
:100020000C9451000C9451000C9451000C949E00BF
:100030000C9451000C9451000C9451000C945100FC
:100040000C9451000C9451000C9451000C945100EC
:100050000C9451000C9451000C9451000C945100DC
:100060000C9451000C94510011241FBECFEFD8E026
:10007000DEBFCDBF12E0A0E0B1E0E6EFFBE002C0E2
:1000800005900D92AE36B107D9F722E0AEE6B2E0A8
:1000900001C01D92A23AB207E1F70E94B9030C9485
:1000A000F9050C940000CF93DF9300D000D0CDB7BA
:1000B000DEB79B01AFE7B0E00E94C0052FEF33E051
:1000C00040E050E00E947F05822F0F900F900F902C
:1000D0000F90DF91CF910895ECE7F0E080E480830A
:1000E00080818F77808387E880937A00EEE7F0E065
:1000F00080818E618083089590917C00907F8F70C5
:10010000982B90937C0080917A00806480937A0091
:1001100080917A0086FDFCCF8091780090917900E3
:1001200080917A00806480937A0080917A0086FDC5
:10013000FCCF809178009091790008951F921FB6AE
:100140001F9211248F939F93AF93BF9380916E0260
:1001500090916F02A0917002B09171020196A11D61
:10016000B11D80936E0290936F02A0937002B093C2
:100170007102BF91AF919F918F911F901FBE1F90F1
:1001800018958D528E3248F4E82FF0E0EE0FFF1FE5
:10019000EE5FFE4F80819181089586E292E008959E
:1001A00029980895299A08952A9A08958EBD0DB424
:1001B00007FEFDCF0895CF93C82F0E94D0002A9844
:1001C0008C2F0E94D600CF910C94D200CF92DF9258
:1001D000EF92FF920F931F93CF93DF93D82EC92EE8
:1001E000162F072FF42EE52EE9018AE20E94DB008C
:1001F0000E94D0000E94D4008C2D0E94D6008D2D2C
:100200000E94D6008E2D0E94D6008F2D0E94D6000F
:100210000E94D2008BE20E94DB000E94D0000E946C
:10022000D400802F0E94D600812F0E94D6008D2FEF
:100230000E94D6008C2F0E94D6000E94D2008CE231
:10024000DF91CF911F910F91FF90EF90DF90CF90B2
:100250000C94DB0084B18F6484B985B1876085B963
:1002600080E58CBD1DBC08950F931F93CF93DF9342
:10027000182F092F2BEA30E04FE351E070E060E0E7
:1002800090E080E00E94E6000E94D0000E94D4002E
:10029000D0E0C0E0802F0E94D600812F0E94D600BF
:1002A0002196C11587EDD807A9F7DF91CF911F914E
:1002B0000F910C94D2000E942A0128988FEF9FE59D
:1002C0000197F1F700C00000289A9FEF2FEF82E01E
:1002D000915020408040E1F700C000C081E00E94C2
:1002E000DB009FEF2FE784E0915020408040E1F752
:1002F00000C0000081E10E94DB0099E929E983E068
:10030000915020408040E1F700008AE30E94DB002A
:100310000E94D0000E94D40085E50E94D6000E9471
:10032000D20086E30E94DB000E94D0000E94D4002D
:1003300080E00E94D6000E94D20081E20E94DB0091
:1003400089E20E94DB008FEF9FEB0197F1F700C07D
:10035000000090E080E00C943401CF93DF93FC0127
:10036000EA01E03481E0F807B0F46C3A710598F4E2
:100370009B01AF01CF010E94E6000E94D0000E94C5
:10038000D4008D2F0E94D6008C2F0E94D600DF91C2
:10039000CF910C94D200DF91CF9108957F928F92EC
:1003A0009F92AF92BF92CF92DF92EF92FF920F9304
:1003B0001F93CF93DF93EC016B01842FF22EE32E7A
:1003C0000E94C1005C0196012A5F3F4FAE014B5F66
:1003D0005F4FB601CE010E94E6000E94D0000E944D
:1003E000D400E501650185E0C80ED11CA990912CCF
:1003F000812CB12CC501082C02C0959587950A94D3
:10040000E2F780FD29C0702E812F0E94D600872D33
:100410000E94D6008FEF881A980A87E08816910408
:1004200049F7CC15DD0511F7C7E0812F0E94D600F2
:10043000802F0E94D600C150C1F7DF91CF911F914C
:100440000F91FF90EF90DF90CF90BF90AF909F9073
:100450008F907F900C94D2007F2C8E2DD6CF8F92D0
:100460009F92AF92BF92CF92DF92EF92FF920F9343
:100470001F93CF93DF93EC01D62EC72EB22EA32E5F
:10048000902E812E7A01F70141917F0141110DC01B
:10049000DF91CF911F910F91FF90EF90DF90CF9060
:1004A000BF90AF909F908F900895092D182D2B2D00
:1004B0003A2D6D2D7C2DCE010E94CE012696E3CFE4
:1004C000AF92BF92CF92DF92EF92FF920F931F9362
:1004D000CF93DF93CDB7DEB764970FB6F894DEBF46
:1004E0000FBECDBF7C015A0189012FEF3FEFAB0159
:1004F000BC0190E080E00E942F022FEF3FEF4BE223
:1005000052E0B70188E490E00E942F024AE0BE0169
:100510006F5F7F4FC5010E94CF052FEF3FEFAE0108
:100520004F5F5F4FB7018AE590E00E942F0264960B
:100530000FB6F894DEBF0FBECDBFDF91CF911F91F4
:100540000F91FF90EF90DF90CF90BF90AF90089504
:100550000F931F93CF93DF93EC0190E080E00E9414
:10056000340110E000E02FEF3FEF4EE252E070E088
:1005700060E090E080E00E942F024881598130E0E5
:1005800020E06AE372E088E090E00E9460024A8125
:100590005B8130E020E060E472E080E190E00E9466
:1005A00060024C815D8130E020E069E472E088E126
:1005B00090E00E9460024E815F8130E020E06DE4B7
:1005C00072E080E290E0DF91CF911F910F910C9447
:1005D00060020F931F93CF93DF93EC018FE190E0C4
:1005E0000E9434010FE110E02FEF3FEF41E552E0B0
:1005F00070E060E090E080E00E942F02488950E0C7
:100600002FE130E06AE372E088E090E00E9460024F
:10061000498950E02FE130E060E472E080E190E051
:100620000E9460024A8950E02FE130E069E472E004
:1006300088E190E00E9460024B8950E02FE130E0B9
:100640006DE472E080E290E0DF91CF911F910F9115
:100650000C9460020F931F93CF93DF93EC0180EE15
:1006600097E00E94340100EE17E02FEF3FEF4EE5D8
:1006700052E070E060E090E080E00E942F02488548
:10068000598520EE37E06AE672E088E090E00E944B
:1006900060024A855B8520EE37E060E472E080E12D
:1006A00090E00E9460024C855D8520EE37E069E4B1
:1006B00072E088E190E00E9460024E855F8520EE46
:1006C00037E06DE472E080E290E0DF91CF911F911E
:1006D0000F910C9460021092C5008DE08093C400CD
:1006E00088E08093C10086E08093C20008959091D5
:1006F000C00095FFFCCF8093C6000895823091051D
:1007000061F08330910569F0019779F4462F51E04B
:1007100070EB63E0852F942F0895462F52E071EB24
:10072000F8CF462F5CE370E9F4CF78EF61E0F2CFC9
:10073000EF92FF920F931F93CF93DF93EC017C0115
:100740008FEFE81AF80A10E000E0888180171106A0
:1007500009F03CF4DF91CF911F910F91FF90EF9042
:100760000895F70181917F010E9477030F5F1F4F6A
:10077000ECCF00D000D0CDB7DEB70E946C000E9455
:100780006B030E945B011092800088E080938100DF
:100790008091810083608093810089E990E090934B
:1007A00089008093880082E080936F007894109293
:1007B000A1021092A00268E1962EF894C0906E02F9
:1007C000D0906F02E0907002F09071027894809166
:1007D000880290918902A0918A02B0918B02A701B0
:1007E0009601281B390B4A0B5B0BDA01C9010A97EA
:1007F000A105B10508F4D1C0C0928802D092890247
:10080000E0928A02F0928B0281E00E947C009C01BF
:10081000845691098538934010F028EC30E03093ED
:100820008F0220938E0282E00E947C009C018456FD
:1008300091098538934010F028EC30E03093930212
:100840002093920283E00E947C009C0184569109CF
:100850008538934010F028EC30E0309391022093DB
:10086000900284E00E947C009C01845691098538A6
:10087000934010F028EC30E030938D0220938C02EE
:1008800060918E0270918F0281E00E94530090E08F
:1008900090939702809396026091920270919302D6
:1008A00082E00E94530090E090939B0280939A0212
:1008B000609190027091910283E00E94530090E059
:1008C0009093990280939802A0900001B09001014A
:1008D000B0929502A092940200918C0210918D0228
:1008E0000935B2E01B0708F454C08091760290915C
:1008F00077028935924008F04CC080917C0290913B
:100900007D02A0917E02B0917F02A7019601281B73
:10091000390B4A0B5B0BC0927C02D0927D02E092B5
:100920007E02F0927F02DA01C9018D529140A10945
:10093000B109833A9640A105B10558F560E67AEE13
:1009400080E090E00E947F05C501880F991F8A0D05
:100950009B1D280F391F369527953695279530937F
:10096000010120930001929EC001939E900D1124DD
:100970009C0150E040E060E67AEE80E090E00E946A
:10098000A105209378023093790240937A02509324
:100990007B021093770200937602809180029091FF
:1009A0008102A0918202B0918302A7019601281BC7
:1009B000390B4A0B5B0BDA01C9010A97A105B10596
:1009C00008F441C0C0928002D0928102E09282027B
:1009D000F0928302609196027091970260939D025B
:1009E00080919A0280939F028091980280939E0248
:1009F000772781E090E00E947E0369837A838B836E
:100A00009C83CE0101960E94980360919F0270E042
:100A100082E090E00E947E0369837A838B839C83CB
:100A2000CE0101960E94980360919E0270E083E0DF
:100A300090E00E947E0369837A838B839C83CE013E
:100A400001960E9498038091720290917302A09186
:100A50007402B0917502B701A601481B590B6A0BCD
:100A60007B0B8091780290917902A0917A02B091EB
:100A70007B02481759076A077B0758F0C092720239
:100A8000D0927302E0927402F092750288EF0E9495
:100A900077038091840290918502A0918602B091A3
:100AA0008702A7019601281B390B4A0B5B0BDA0161
:100AB000C90184369105A105B10508F47ECEC09226
:100AC0008402D0928502E0928602F09287028091A1
:100AD000A0029091A1028130910539F0029751F066
:100AE0008CE892E00E94A80268CE8CE892E00E9416
:100AF0002A0363CE8CE892E00E94E9025ECEA1E276
:100B00001A2EAA1BBB1BFD010DC0AA1FBB1FEE1F87
:100B1000FF1FA217B307E407F50720F0A21BB30BD2
:100B2000E40BF50B661F771F881F991F1A9469F74E
:100B300060957095809590959B01AC01BD01CF01AA
:100B40000895052E97FB1EF400940E94B80557FDEA
:100B500007D00E947F0507FC03D04EF40C94B80523
:100B600050954095309521953F4F4F4F5F4F0895D9
:100B700090958095709561957F4F8F4F9F4F089509
:100B8000A29FB001B39FC001A39F700D811D1124CE
:100B9000911DB29F700D811D1124911D0895BB27D9
:100BA000FB015527AA27880F991FAA1FA41710F029
:100BB000A41B83955051B9F7A05DAA3308F0A95D35
:100BC000A193009779F7B111B1931192CB010C94D5
:100BD000E905DC01FC01672F71917723E1F732977A
:100BE00004C07C916D9370836291AE17BF07C8F308
:060BF0000895F894FFCF08
:100BF6003C001C02170212020D0208020302FE014B
:100C0600F901F401EF01EA01E501E0012102260202
:100C160026022602260226022602DB01D601D10181
:100C2600CC01C701C201BD01B801B301AE01A901E2
:100C3600A4019F019A01950190018B018601810112
:100C46007C01770172016D01680163015E016151EA
:100C5600494543070870080763140814633F403882
:100C6600403F1F2040201F3F4040403F01017F0181
:100C76000146494949317F091929463E4151215EBC
:100C86007F090909063E4141413E7F0408107F7FE6
:100C9600020C027F7F404040407F081422412040E2
:100CA600413F0100417F41007F0808087F3E4149DE
:100CB600497A7F090909017F494949417F41412212
:100CC6001C3E414141227F494949367E1111117E20
:100CD600064949291E364949493601710905033C29
:100CE6004A49493027454545391814127F10214194
:100CF600454B31426151494600427F40003E5149D1
:100D0600453E20100804020060600000080808083C
:100D160008003636000000000000003A200052416C
:100D2600572056414C5545533A0050554C534500B3
:100D3600505245535355524500454D47004753526F
:100D4600004D4944492056414C5545533A004249C5
:0E0D56004F4D4554524943533A0042504D0010
:00000001FF
